:1000000009C00EC00DC00CC00BC00AC009C008C09A
:1000100007C006C011241FBECFE9CDBF64D07EC08B
:10002000EFCF2CE135E2815020F0F9013197F1F763
:10003000FACF0895CF93C82FCC2321F084E6F1DFC7
:10004000C150FACFCF91089591E29FBD92E093BF46
:1000500089BD08951F93CF93DF931F92CDB7DD27FE
:10006000182F112361F0862F6983EEDF82E3D9DF39
:1000700080E0EADF82E3D5DF11506981F2CF0F9093
:10008000DF91CF911F9108950F931F93CF93DF932B
:100090001F92CDB7DD27082F349B03C0D5DF85E045
:1000A000C9DF15B1369A80E0CFDF83E0C3DF812F4F
:1000B00064E628D0602F9983CDDF81E0BBDF998192
:1000C000892F6AE01FD0602F9983C4DF81E0B2DFFF
:1000D000602F9981892FBEDF85E00F90DF91CF914E
:1000E0001F910F91A7CFB99AA29A81E687B986ECA2
:1000F00086B982E0C9DF80E1C7DF8FEFC5DF85E029
:1001000099DFF7CF991B79E004C0991F961708F083
:10011000961B881F7A95C9F780950895F894FFCFAC
:00000001FF
