:1000000009C00EC00DC00CC00BC00AC009C008C09A
:1000100007C006C011241FBECFE9CDBF66D080C087
:10002000EFCF2CE135E2815020F0F9013197F1F763
:10003000FACF0895CF93C82FCC2321F084E6F1DFC7
:10004000C150FACFCF91089591E29FBD92E093BF46
:1000500089BD08951F93CF93DF931F92CDB7DD27FE
:10006000182F112361F0862F6983EEDF82E3D9DF39
:1000700080E0EADF82E3D5DF11506981F2CF0F9093
:10008000DF91CF911F9108950F931F93CF93DF932B
:100090001F92CDB7DD27082FD7DF8AE0CBDF369A56
:1000A0003699FECF15B180E0CFDF83E0C3DF812F2B
:1000B00064E62AD0602F9983CDDF82E0BBDF99818F
:1000C000892F6AE021D0602F9983C4DF82E0B2DFFC
:1000D000602F9981892FBEDF85E0ACDF80E00F9033
:1000E000DF91CF911F910F91AFCFB99AA29A81E67C
:1000F00087B986EC86B982E0C7DF80E1C5DF8FEF84
:10010000C3DF85E097DFF7CF991B79E004C0991F23
:10011000961708F0961B881F7A95C9F78095089561
:04012000F894FFCF81
:00000001FF
