:1000000009C00EC00DC00CC00BC00AC009C008C09A
:1000100007C006C011241FBECFE9CDBF35D07CC0BC
:10002000EFCF2CE135E2815020F0F9013197F1F763
:10003000FACF0895CF93C82FCC2321F084E6F1DFC7
:10004000C150FACFCF91089591E29FBD92E093BF46
:1000500089BD08951F93CF93DF931F92CDB7DD27FE
:10006000182F112361F0862F6983EEDF82E3D9DF39
:1000700080E0EADF82E3D5DF11506981F2CF0F9093
:10008000DF91CF911F910895CF93DF931F92CDB74A
:10009000DD27B99AA29A81E687B986EC86B984E60B
:1000A000E82E1AE0FF24F3948F2DCEDF83E0C2DF29
:1000B000349B1EC085B1369A6E2D22D0082F80E069
:1000C0009983C2DF83E0B6DF6F2D802FC3DF81E02D
:1000D000B1DF9981892F612F13D06F2D9983BADFFA
:1000E00081E0A8DF6F2D9981892FB4DF85E0A2DF41
:1000F0008FE7F80E8EE7F812D7CF85E09BDFD2CFDF
:10010000991B79E004C0991F961708F0961B881F69
:0C0110007A95C9F780950895F894FFCF08
:00000001FF
