:100000000CC011C010C00FC00EC00DC00CC00BC082
:100010000AC009C00001041040FF11241FBECFE92F
:10002000CDBF6DD0E1C1ECCF863028F4E82FF0E0F1
:10003000EC5EFF4F02C0E9E1F0E0E49181E28FBDA8
:1000400082E083BFE9BD08952CE135E2815020F0C4
:10005000F9013197F1F7FACF0895FF920F931F93AB
:10006000CF93DF93D62F142FF22EC82FCC2351F02D
:100070008D2FDADF812FE8DF8F2DD6DF802FE4DFB1
:10008000C150F4CFDF91CF911F910F91FF90089550
:10009000EF92FF920F931F93CF93DF9360916600CF
:1000A00080916000861739F08FE390E090D18091C5
:1000B00066008093600080E6E82E80E0F82E06E679
:1000C00010E0CEE3D0E0F8016585F7018181861765
:1000D00031F0CE017CD1F8018585F7018183FFEFF6
:1000E000EF1AFF0A0F5F1F4F2197C933D10559F748
:1000F000DF91CF911F910F91FF90EF900895B99AE2
:10010000A29A81E687B986EC86B98FE390E058D150
:100110008093600010926D0031E6A32E30E0B32E84
:1001200043E7E42E40E0F42E6701CEE3D0E00EE694
:1001300010E0912CCE0144D1F50181935F01882319
:1001400069F0F4E0F91550F0F801808390916D00AA
:100150009F5F90936D000F5F1F4F982EF601819364
:100160006F012197C933D10529F7C0916A00CC23CB
:1001700041F01092670010926B00809160008093B4
:100180006600809167008111B2C0C111ABC085E0EB
:100190005BDF80916B008F3F29F0C0916900CF5FDA
:1001A000C0936900C0936B0084E14EDF1092690038
:1001B00080916B00813019F0823069F013C090910A
:1001C00066009F5F9093660020916D00921750F03B
:1001D0009091600005C090916600992319F09150AC
:1001E0009093660090916C00992309F445C0853086
:1001F000B9F040F4833009F4E1C0843009F09EC0C6
:10020000C1E0A2C08630F9F0893009F097C01092A1
:100210006C0003E020E042E063E08AE01EDF8EC075
:1002200085B1853868F090E08458910923E0959570
:1002300087952A95E1F702E320E042E363E00DDFD2
:1002400084E602DF7BC08FEF80936B00C0E004E1A7
:1002500020E0C13011F44CE301C044E164E083E0EC
:10026000FCDE88E2F1DECF5FC33089F7CCE384E6C1
:10027000EBDEC150E1F7EACF843009F45EC089308B
:10028000E9F0833009F05AC084E6DEDE81E0809335
:100290006700C0E0C0936800F701D1917F0161E081
:1002A0006D0F00EF2D2F4AE081E0D7DECF5FC53024
:1002B00011F0D53078F31092670040C082E080934F
:1002C00066001092670091E0909373008093740031
:1002D00083E08093750084E08093760085E08093CE
:1002E00077002BC01092690010926A0027C084E644
:1002F000ABDE80916800E82FF0E0EA59FF4F1585EA
:100300001092660010926700882311F0C48501C026
:10031000C0E0E0916800F0E0EA59FF4FC63060F4B9
:10032000C587B6DED1E0DC0F00EF2C2F4AE06D2F41
:1003300081E093DECD2FEDCF1587AADEE091660038
:10034000F0E0EA59FF4FC085D0E010E00FEFE091F8
:100350006600F0E0EA59FF4F80858C1300936B0034
:100360008C2F62DEC53020F01F5F143B10F0C150AF
:1003700010E0369A3699FECF85B1843818F4C4302F
:1003800008F0C3E087FD16C0DF5FD530A0F0C330B2
:1003900010F0C1500FC0883768F480E045DE85B7A3
:1003A000877E806185BF85B7806285BF889585B768
:1003B0008F7D85BFD0E084E647DEC9CFC5E0C4CFDE
:1003C000E199FECF8EBBE09A99278DB30895262F31
:1003D000E199FECF1CBA8EBB2DBB0FB6F894E29A02
:0C03E000E19A0FBE01960895F894FFCF3B
:00000001FF
