:100000000EC013C012C011C010C00FC00EC00DC072
:100010000CC00BC0000102040810204080FF112416
:100020001FBECFE9CDBF90D0E6C1EACF2CE135E2CB
:10003000815020F0F9013197F1F7FACF089584E665
:10004000F5CFEF92FF920F931F93CF93DF936091C1
:10005000600080917200861739F08FE390E0BED186
:100060008091600080937200CEE3D0E00DE610E056
:1000700083E7E82E80E0F82EF8016081F7018081A7
:10008000861731F0CE01AAD1F8018081F701808373
:10009000FFEFEF1AFF0A0F5F1F4F2197C933D105FA
:1000A00059F7DF91CF911F910F91FF90EF90089535
:1000B000E0E6F0E082E08083118281E0858783E0E2
:1000C000868785E0878787E0808B89E0818BB9CF41
:1000D0008A3028F4E82FF0E0EC5EFF4F02C0EDE13B
:1000E000F0E0E49181E28FBD82E083BFE9BD089535
:1000F000EF92FF920F931F93CF93DF931F92CDB791
:10010000DD27E42E122FF82EFF2061F0862F698361
:10011000DFDF8E2D8BDF812FDBDF802F87DFFA94EF
:100120006981F2CF0F90DF91CF911F910F91FF90D6
:10013000EF9008950F9361E0680F0EEB282F4AE0CF
:1001400081E0D6DF0F910895B99AA29A81E687B926
:1001500086EC86B98FE390E03AD1809372008530C7
:1001600008F0A6DF1092670033E7A32E30E0B32E2D
:100170000DE610E06801CEE3D0E048E6E42E40E072
:10018000F42E912CCE0123D1F50181935F018823B8
:1001900079F0F8E0F91560F0F7018083909167003D
:1001A0009F5F9093670097012F5F3F4F7901982ED3
:1001B000F60181936F012197C933D10519F7809119
:1001C0006400882341F010926100109265009091C4
:1001D00072009093600090916100911196C081111E
:1001E0008FC0909165009F3F29F0809163008F5FE1
:1001F000809363008093650089E118DF10926300AB
:1002000080916500813019F0823069F013C09091BF
:1002100060009F5F9093600020916700921750F0FC
:100220009091720005C090916000992319F091504F
:100230009093600090916600992309F443C0853043
:10024000B9F040F4833009F481C0843009F0B8C0BB
:10025000C1E07DC08630F1F0893009F0B1C0109264
:10026000660003E020E042E065E08AE041DFA8C0EC
:1002700085B1853868F090E08458910923E0959520
:1002800087952A95E1F702E320E042E365E030DF5D
:10029000D6DE96C08FEF80936500C0E004E120E0D9
:1002A000C13011F44CE301C044E168E083E020DF99
:1002B00088E2BCDECF5FC33089F7CCE3C0DEC1503B
:1002C000E9F77EC0843009F43FC08930B9F083304B
:1002D00009F076C0B4DE81E080936100C0E0C09395
:1002E0006200F801D1918F018D2F24DFCF5FC530DF
:1002F00011F0D930A0F31092610062C0D9DE60C065
:1003000010926300109264005BC099DE80916200DD
:10031000E82FF0E0E05AFF4FD58510926000109270
:100320006100882311F0C48501C0C0E0E091620043
:10033000F0E0E05AFF4FCA3030F4C58782DE8C2FE0
:10034000F9DECF5FF3CFD5877CDE3AC0C9E010E09D
:10035000D0E00FEFE0916000F0E0E05AFF4F8085C1
:10036000C813009365008C2FB3DEC83020F01F5FE8
:10037000143B10F0C15010E0369A3699FECF85B18B
:10038000843818F4C63008F0C5E087FD16C0DF5F7A
:10039000D530A0F0C33010F0C1500FC0883768F4DA
:1003A00080E096DE85B7877E806185BF85B78062F5
:1003B00085BF889585B78F7D85BFD0E040DECACFE9
:1003C000E0916000F0E0E05AFF4FC085C0CFE199B6
:1003D000FECF8EBBE09A99278DB30895262FE19921
:1003E000FECF1CBA8EBB2DBB0FB6F894E29AE19AF1
:0A03F0000FBE01960895F894FFCFA8
:00000001FF
