:100000000EC013C012C011C010C00FC00EC00DC072
:100010000CC00BC0000102040810204080FF112416
:100020001FBECFE9CDBF9BD0E9C1EACF2CE135E2BD
:10003000815020F0F9013197F1F7FACF089584E665
:10004000F5CFCF93CCE384E6F1DFC150E1F7CF9158
:1000500008956091600080917200861739F08FE3F7
:1000600090E0BFD180916000809372000895EF927C
:10007000FF920F931F93CF93DF93CEE3D0E00DE673
:1000800010E083E7E82E80E0F82EF8016081F701A8
:100090008081861731F0CE01A4D1F8018081F7016B
:1000A0008083FFEFEF1AFF0A0F5F1F4F2197C933BD
:1000B000D10559F7DF91CF911F910F91FF90EF90EC
:1000C0000895E0E6F0E082E08083118281E0858798
:1000D00083E0868785E0878787E0808B89E0818B56
:1000E000C6DFB7CF8A3018F4882339F001C089E021
:1000F000E82FF0E0EC5EFF4F849191E29FBD92E02B
:1001000093BF89BD0895EF92FF920F931F93CF93F2
:10011000DF931F92CDB7DD27E42E122FF82EFF209C
:1001200061F0862F6983DEDF8E2D80DF812FDADF9D
:10013000802F7CDFFA946981F2CF0F90DF91CF910D
:100140001F910F91FF90EF9008950F9361E0680F5A
:100150000EEB282F4AE081E0D6DF0F910895B99A7F
:10016000A29A81E687B986EC86B98FE390E032D116
:1001700080937200853008F0A4DF1092670033E7A7
:10018000A32E30E0B32E0DE610E06801CEE3D0E000
:1001900048E6E42E40E0F42E912CCE011BD1F5016F
:1001A00081935F01882379F0F8E0F91560F0F70199
:1001B0008083909167009F5F9093670097012F5F06
:1001C0003F4F7901982EF60181936F012197C93332
:1001D000D10519F790916400992341F010926100C4
:1001E00010926500809172008093600080916100A0
:1001F00081117AC0911173C0809163008F5F8F70FD
:100200008093630089E112DF809165009DEF980F74
:10021000923010F0863011F41092630080916300E8
:100220008093650010926300813061F490916000CA
:100230009F5F9093600020916700921788F09091E3
:10024000720007C0823041F490916000992341F020
:1002500091509093600004C0893011F410926600B0
:10026000909166009923E9F0833009F465C08430E9
:1002700009F464C0853009F063C0C5B1E0DEC4385C
:1002800070F085B190E08358910923E095958795AA
:100290002A95E1F702E320E042E365E034DFCFDEB8
:1002A0004FC08330A1F4CBDE81E080936100C0E0D9
:1002B000C0936200F801D1918F018D2F46DFCF5F8F
:1002C000C53011F0D930A0F31092610039C08430EC
:1002D00011F4BFDE35C0873099F5F3DE31C01092DE
:1002E0006300109264002CC0813051F5A8DEE091CB
:1002F0006200F0E0E05AFF4FD58510926000109246
:100300006100A7DEE0916200EE2329F0F0E0E05A00
:10031000FF4FC4850CC0C0E0E0916200F0E0E05AFD
:10032000FF4FCA3030F4C587A2DE8C2F0EDFCF5FBF
:10033000F3CFD5879CDE04C099E003C091E001C0F3
:1003400090E0E0916000F0E0E05AFF4FC08591112D
:10035000C92FD0E0809165008630B1F404E120E03F
:1003600044E16C2F83E0CFDE88E260DE20E04CE3E6
:100370006C2F83E0C8DE88E259DE20E044E16C2F78
:1003800083E0C1DE5EDE02C08C2FACDE349B20C079
:1003900085B18338D8F4C83008F0C7E08937B0F4A5
:1003A000DF5FD530A0F0C33010F0C1500FC08F36E2
:1003B00068F480E097DE85B7877E806185BF85B76A
:1003C000806285BF889585B78F7D85BFD0E0369ADE
:1003D00036DEC0CFE199FECF8EBBE09A99278DB370
:1003E0000895262FE199FECF1CBA8EBB2DBB0FB608
:1003F000F894E29AE19A0FBE01960895F894FFCF1F
:00000001FF
