:100000000CC011C010C00FC00EC00DC00CC00BC082
:100010000AC009C000050D235EFF11241FBECFE9F1
:10002000CDBF6DD0E5C1ECCF863028F4E82FF0E0ED
:10003000EC5EFF4F02C0E9E1F0E0E49181E28FBDA8
:1000400082E083BFE9BD08952CE135E2815020F0C4
:10005000F9013197F1F7FACF0895FF920F931F93AB
:10006000CF93DF93D62F142FF22EC82FCC2351F02D
:100070008D2FDADF812FE8DF8F2DD6DF802FE4DFB1
:10008000C150F4CFDF91CF911F910F91FF90089550
:10009000EF92FF920F931F93CF93DF9360916600CF
:1000A00080916000861739F08FE390E094D18091C1
:1000B00066008093600080E6E82E80E0F82E06E679
:1000C00010E0CEE3D0E0F8016585F7018181861765
:1000D00031F0CE0180D1F8018585F7018183FFEFF2
:1000E000EF1AFF0A0F5F1F4F2197C933D10559F748
:1000F000DF91CF911F910F91FF90EF90089585E0D0
:10010000A3DFB99AA29A81E687B986EC86B98FE314
:1001100090E05AD18093600010926D0031E6A32EDA
:1001200030E0B32E43E7E42E40E0F42E6701CEE347
:10013000D0E00EE610E0912CCE0146D1F50181937E
:100140005F01882369F0F4E0F91550F0F80180832D
:1001500090916D009F5F90936D000F5F1F4F982EE1
:10016000F60181936F012197C933D10529F7809159
:100170006A00882359F01092670010926B009091EA
:1001800060009093660091E090936C0090916700FE
:10019000913039F584E658DF80916800E82FF0E06F
:1001A000EA59FF4F15851092660010926700882368
:1001B00011F0C48501C0C0E0E0916800F0E0EA59A8
:1001C000FF4FC63060F4C58763DFD1E0DC0F00EF7E
:1001D0002C2F4AE06D2F81E040DFCD2FEDCF15872A
:1001E00091C0882329F01092690010926A008BC098
:1001F00090916B009A3028F4809169008F5F809312
:10020000690080936B0089E11FDF10926900809183
:100210006B00813019F0823069F013C09091660054
:100220009F5F9093660020916D00921750F090911F
:10023000600005C090916600992319F09150909349
:10024000660090916C00913051F5843099F020F463
:10025000833009F4B7C057C0853071F0893009F098
:1002600052C010926C0003E020E043E063E08AE0BB
:10027000F4DE49C0C1E04DC085B1853868F090E03A
:100280008458910923E0959587952A95E1F702E333
:1002900020E042E363E0E1DE84E6D6DE34C0843071
:1002A00089F18930E1F0833071F584E6CDDE81E0BB
:1002B00080936700C0E0C0936800F701D1917F018F
:1002C00061E06D0F00EF2D2F4AE081E0C6DECF5FC9
:1002D000C53011F0D53078F31092670014C082E079
:1002E000809366001092670091E090937300809372
:1002F000740083E08093750084E08093760085E04D
:1003000080937700C5DEE0916600F0E0EA59FF4F88
:10031000C085D0E010E0EE24EA9480916B00863036
:10032000C1F4F12CF1E004E120E0FF1202C04CE343
:1003300001C044E16C2F83E090DE88E285DEF39417
:1003400083E0F812EFCF0CE384E67EDE0150E1F7A4
:100350000DC0E0916600F0E0EA59FF4F80858C13F4
:10036000E0926B008C2F60DE84E66EDEC53020F0FC
:100370001F5F143B10F0C15010E0369A3699FECF43
:1003800085B1843818F4C43008F0C3E087FF02C098
:10039000D0E0C3CFDF5FD53008F4BFCFC33010F05B
:1003A000C150F6CF8837A0F780E03EDE85B7877E64
:1003B000806185BF85B7806285BF889585B78F7D51
:1003C00085BFE6CFC5E0A5CFE199FECF8EBBE09A11
:1003D00099278DB30895262FE199FECF1CBA8EBBC5
:1003E0002DBB0FB6F894E29AE19A0FBE01960895DC
:0403F000F894FFCFAF
:00000001FF
