:100000000EC013C012C011C010C00FC00EC00DC072
:100010000CC00BC0000102040810204080FF112416
:100020001FBECFE9CDBF93D0E3C1EACF2CE135E2CB
:10003000815020F0F9013197F1F7FACF089584E665
:10004000F5CF6091600080917200861739F08FE3E0
:1000500090E0C1D180916000809372000895EF928A
:10006000FF920F931F93CF93DF93CEE3D0E00DE683
:1000700010E083E7E82E80E0F82EF8016081F701B8
:100080008081861731F0CE01A6D1F8018081F70179
:100090008083FFEFEF1AFF0A0F5F1F4F2197C933CD
:1000A000D10559F7DF91CF911F910F91FF90EF90FC
:1000B0000895E0E6F0E082E08083118281E08587A8
:1000C00083E0868785E0878787E0808B89E0818B66
:1000D000C6DFB7CF8A3018F4882339F001C089E031
:1000E000E82FF0E0EC5EFF4F849191E29FBD92E03B
:1000F00093BF89BD0895EF92FF920F931F93CF9303
:10010000DF931F92CDB7DD27E42E122FF82EFF20AC
:1001100061F0862F6983DEDF8E2D88DF812FDADFA5
:10012000802F84DFFA946981F2CF0F90DF91CF9115
:100130001F910F91FF90EF9008950F9361E0680F6A
:100140000EEB282F4AE081E0D6DF0F910895B99A8F
:10015000A29A81E687B986EC86B98FE390E034D124
:1001600080937200853008F0A4DF1092670033E7B7
:10017000A32E30E0B32E0DE610E06801CEE3D0E010
:1001800048E6E42E40E0F42E912CCE011DD1F5017D
:1001900081935F01882379F0F8E0F91560F0F701A9
:1001A0008083909167009F5F9093670097012F5F16
:1001B0003F4F7901982EF60181936F012197C93342
:1001C000D10519F7C0916400CC2341F01092610071
:1001D00010926500809172008093600080916100B0
:1001E000811181C0C1117AC0809163008F5F8F70CF
:1001F0008093630089E11ADF80916500835083302A
:1002000010F0C0916300C093650010926300C1308C
:1002100019F0C23069F013C0809160008F5F809345
:10022000600090916700891750F08091720005C0BE
:1002300080916000882319F0815080936000809144
:100240006600882361F1C430A1F028F4C33009F0BE
:1002500071C0C9E075C0C63071F0C93009F06AC01C
:100260001092660003E020E042E065E08AE043DFB0
:1002700061C0C1E065C0C5B1E2DEC43870F085B1CF
:1002800090E08358910923E0959587952A95E1F7A9
:1002900002E320E042E365E02EDFD1DE4BC0C43054
:1002A000C9F0C930C9F0C33009F044C0C8DE81E0EC
:1002B00080936100C0E0C0936200F801D1918F018A
:1002C0008D2F3BDFCF5FC53011F0D930A0F31092F6
:1002D000610030C0B6DE2EC0ECDE2CC01092630090
:1002E0001092640027C0813029F5A9DEE0916200F8
:1002F000F0E0E05AFF4FD585109260001092610047
:10030000A0DEE0916200EE2329F0F0E0E05AFF4F1A
:10031000C48501C0C0E0E0916200F0E0E05AFF4F08
:10032000CA3030F4C5879BDE8C2F07DFCF5FF3CF59
:10033000D58795DEE0916000F0E0E05AFF4FC08580
:10034000D0E0809165008530C9F404E120E044E10B
:100350006C2F83E0D0DE88E269DE20E04CE36C2F76
:1003600083E0C9DE88E262DE20E044E16C2F83E0B6
:10037000C2DE1CE364DE1150E9F702C08C2FAADE56
:10038000349B20C085B18338D8F4C83008F0C7E06A
:100390008937B0F4DF5FD530A0F0C33010F0C15022
:1003A0000FC08F3668F480E095DE85B7877E806168
:1003B00085BF85B7806285BF889585B78F7D85BFEE
:1003C000D0E0369A3CDEBDCFE199FECF8EBBE09AFD
:1003D00099278DB30895262FE199FECF1CBA8EBBC5
:1003E0002DBB0FB6F894E29AE19A0FBE01960895DC
:0403F000F894FFCFAF
:00000001FF
