:100000000EC013C012C011C010C00FC00EC00DC072
:100010000CC00BC0000102040810204080FF112416
:100020001FBECFE9CDBF93D0E7C1EACF2CE135E2C7
:10003000815020F0F9013197F1F7FACF089584E665
:10004000F5CF6091600080917200861739F08FE3E0
:1000500090E0C5D180916000809372000895EF9286
:10006000FF920F931F93CF93DF93CEE3D0E00DE683
:1000700010E083E7E82E80E0F82EF8016081F701B8
:100080008081861731F0CE01AAD1F8018081F70175
:100090008083FFEFEF1AFF0A0F5F1F4F2197C933CD
:1000A000D10559F7DF91CF911F910F91FF90EF90FC
:1000B0000895E0E6F0E082E08083118281E08587A8
:1000C00083E0868785E0878787E0808B89E0818B66
:1000D000C6DFB7CF8A3018F4882339F001C089E031
:1000E000E82FF0E0EC5EFF4F849191E29FBD92E03B
:1000F00093BF89BD0895EF92FF920F931F93CF9303
:10010000DF931F92CDB7DD27E42E122FF82EFF20AC
:1001100061F0862F6983DEDF8E2D88DF812FDADFA5
:10012000802F84DFFA946981F2CF0F90DF91CF9115
:100130001F910F91FF90EF9008950F9361E0680F6A
:100140000EEB282F4AE081E0D6DF0F910895B99A8F
:10015000A29A81E687B986EC86B98FE390E038D120
:1001600080937200853008F0A4DF1092670033E7B7
:10017000A32E30E0B32E0DE610E06801CEE3D0E010
:1001800048E6E42E40E0F42E912CCE0121D1F50179
:1001900081935F01882379F0F8E0F91560F0F701A9
:1001A0008083909167009F5F9093670097012F5F16
:1001B0003F4F7901982EF60181936F012197C93342
:1001C000D10519F790916400992341F010926100D4
:1001D00010926500809172008093600080916100B0
:1001E00081117DC0911176C0809163008F5F8F7007
:1001F0008093630089E11ADF80916500835083302A
:1002000010F4109263008091630080936500109257
:100210006300813061F4909160009F5F9093600073
:1002200020916700921760F09091720007C08230B1
:1002300039F490916000992319F0915090936000E7
:1002400090916600992341F1833009F471C08430A4
:1002500009F470C08630A1F4C5B1F1DEC43870F085
:1002600085B190E08358910923E0959587952A956B
:10027000E1F702E320E042E365E03DDFE0DE56C067
:10028000893009F053C01092660003E020E042E09C
:1002900065E08AE030DF4AC08330A1F4D0DE81E03F
:1002A00080936100C0E0C0936200F801D1918F019A
:1002B0008D2F43DFCF5FC53011F0D930A0F31092FE
:1002C000610034C0843011F4BCDE30C0893071F577
:1002D000F0DE2CC0109263001092640027C08130C1
:1002E00029F5ADDEE0916200F0E0E05AFF4FD585E0
:1002F0001092600010926100A4DEE0916200EE2393
:1003000029F0F0E0E05AFF4FC4850CC0C0E0E09156
:100310006200F0E0E05AFF4FCA3030F4C5879FDE3C
:100320008C2F0BDFCF5FF3CFD58799DE90E003C032
:1003300099E001C091E0E0916000F0E0E05AFF4FE9
:10034000C0859111C92FD0E0809165008530D1F42E
:1003500004E120E044E16C2F83E0CDDE88E266DE3C
:1003600020E04CE36C2F83E0C6DE88E25FDE20E015
:1003700044E16C2F83E0BFDE1CE384E657DE1150BE
:10038000E1F702C08C2FA6DE349B20C085B18338F4
:10039000D8F4C83008F0C7E08937B0F4DF5FD53053
:1003A000A0F0C33010F0C1500FC08F3668F480E069
:1003B00091DE85B7877E806185BF85B7806285BF06
:1003C000889585B78F7D85BFD0E0369A38DEBCCF63
:1003D000E199FECF8EBBE09A99278DB30895262F21
:1003E000E199FECF1CBA8EBB2DBB0FB6F894E29AF2
:0C03F000E19A0FBE01960895F894FFCF2B
:00000001FF
