:100000000CC011C010C00FC00EC00DC00CC00BC082
:100010000AC009C00001041040FF11241FBECFE92F
:10002000CDBF8FD0DFC1ECCF2CE135E2815020F085
:10003000F9013197F1F7FACF089584E6F5CFEF9201
:10004000FF920F931F93CF93DF9360916000809195
:100050007200861739F08FE390E0B7D1809160008D
:1000600080937200CEE3D0E00DE610E083E7E82E47
:1000700080E0F82EF8016081F7018081861731F069
:10008000CE01A3D1F8018081F7018083FFEFEF1A41
:10009000FF0A0F5F1F4F2197C933D10559F7DF9131
:1000A000CF911F910F91FF90EF900895E0E6F0E05F
:1000B00082E08083118291E09587868783E087873D
:1000C00084E0808B85E0818BBACF863028F4E82FDE
:1000D000F0E0EC5EFF4F02C0E9E1F0E0E49181E284
:1000E0008FBD82E083BFE9BD0895EF92FF920F9329
:1000F0001F93CF93DF931F92CDB7DD27E42E122FEE
:10010000F82EFF2061F0862F6983DFDF8E2D8CDFD4
:10011000812FDBDF802F88DFFA946981F2CF0F9087
:10012000DF91CF911F910F91FF90EF9008950F9362
:1001300061E0680F00EF282F4AE081E0D6DF0F91E1
:100140000895B99AA29A81E687B986EC86B98FE3B9
:1001500090E034D1809372001092670033E7A32EB1
:1001600030E0B32E0DE610E06801CEE3D0E048E6C3
:10017000E42E40E0F42E912CCE0120D1F5018193A4
:100180005F01882379F0F4E0F91560F0F7018083CE
:10019000909167009F5F9093670097012F5F3F4F9B
:1001A0007901982EF60181936F012197C933D1050A
:1001B00019F780916400882341F010926100109239
:1001C0006500909172009093600090916100911190
:1001D00094C081118DC0909165009F3F29F080915E
:1001E00063008F5F809363008093650089E11CDF6B
:1001F0001092630080916500813019F0823069F0BF
:1002000013C0909160009F5F909360002091670001
:10021000921750F09091720005C090916000992360
:1002200019F091509093600090916600992309F421
:1002300043C08530B9F040F4833009F4BDC0843048
:1002400009F07BC0C1E07FC08630F1F0893009F051
:1002500074C01092660003E020E042E063E08AE0B0
:1002600044DF6BC085B1853868F090E0845891090F
:1002700023E0959587952A95E1F702E320E042E394
:1002800063E033DFDADE59C08FEF80936500C0E0B2
:1002900004E120E0C13011F44CE301C044E164E02A
:1002A00083E023DF88E2C0DECF5FC33089F7CCE391
:1002B000C4DEC150E9F7EBCF8430F1F18930B1F001
:1002C0008330D9F5BADE81E080936100C0E0C0934D
:1002D0006200F801D1918F018D2F29DFCF5FC530EA
:1002E00011F0D530A0F31092610027C0DFDE25C0E9
:1002F000109263001092640020C09FDE8091620023
:10030000E82FF0E0E05AFF4FD58510926000109280
:100310006100882311F0C48501C0C0E0E091620053
:10032000F0E0E05AFF4FC63030F4C58788DE8C2FEE
:10033000FEDECF5FF3CFD58782DEE0916000F0E094
:10034000E05AFF4FC08510E0D0E00FEFE091600071
:10035000F0E0E05AFF4F8085C813009365008C2FB2
:10036000B4DEC53020F01F5F143B10F0C15010E028
:10037000369A3699FECF85B1843818F4C43008F027
:10038000C3E087FD16C0DF5FD530A0F0C33010F0AA
:10039000C1500FC0883768F480E097DE85B7877E4C
:1003A000806185BF85B7806285BF889585B78F7D61
:1003B00085BFD0E042DECACFC5E0C5CFE199FECF10
:1003C0008EBBE09A99278DB30895262FE199FECF31
:1003D0001CBA8EBB2DBB0FB6F894E29AE19A0FBE01
:0803E00001960895F894FFCF87
:00000001FF
