:100000000EC013C012C011C010C00FC00EC00DC072
:100010000CC00BC0000102040810204080FF112416
:100020001FBECFE9CDBF91D0E2C1EACF2CE135E2CE
:10003000815020F0F9013197F1F7FACF089584E665
:10004000F5CFEF92FF920F931F93CF93DF936091C1
:10005000600080917200861739F08FE390E0BAD18A
:100060008091600080937200CEE3D0E00DE610E056
:1000700083E7E82E80E0F82EF8016081F7018081A7
:10008000861731F0CE01A6D1F8018081F701808377
:10009000FFEFEF1AFF0A0F5F1F4F2197C933D105FA
:1000A00059F7DF91CF911F910F91FF90EF90089535
:1000B000E0E6F0E082E08083118281E0858783E0E2
:1000C000868785E0878787E0808B89E0818BB9CF41
:1000D0008A3018F4882339F001C089E0E82FF0E075
:1000E000EC5EFF4F849191E29FBD92E093BF89BD8A
:1000F0000895EF92FF920F931F93CF93DF931F9278
:10010000CDB7DD27E42E122FF82EFF2061F0862FC9
:100110006983DEDF8E2D8ADF812FDADF802F86DF95
:10012000FA946981F2CF0F90DF91CF911F910F91D7
:10013000FF90EF9008950F9361E0680F0EEB282F6A
:100140004AE081E0D6DF0F910895B99AA29A81E63C
:1001500087B986EC86B98FE390E035D18093720041
:10016000853008F0A5DF1092670033E7A32E30E05A
:10017000B32E0DE610E06801CEE3D0E048E6E42EB1
:1001800040E0F42E912CCE011ED1F50181935F0148
:10019000882379F0F8E0F91560F0F70180839091F9
:1001A00067009F5F9093670097012F5F3F4F790132
:1001B000982EF60181936F012197C933D10519F764
:1001C000C0916400CC2341F0109261001092650050
:1001D00080917200809360008091610081117FC0E6
:1001E000C11178C0809163008F5F8F70809363002E
:1001F00089E11CDF809165008350833010F0C0914D
:100200006300C093650010926300C13019F0C230E2
:1002100069F013C0809160008F5F809360009091BF
:100220006700891750F08091720005C080916000CE
:10023000882319F0815080936000809166008823A4
:1002400061F1C430A1F028F4C33009F06AC0C9E0FC
:100250006EC0C63071F0C93009F063C010926600FC
:1002600003E020E042E065E08AE043DF5AC0C1E0FD
:100270005EC0C5B1E4DEC53870F085B190E0845849
:10028000910923E0959587952A95E1F702E320E00F
:1002900042E365E02EDFD3DE44C0C43009F440C041
:1002A000C930B1F0C330E9F5CADE81E08093610066
:1002B000C0E0C0936200F801D1918F018D2F3BDF28
:1002C000CF5FC53011F0D930A0F31092610029C082
:1002D000EFDE27C0109263001092640022C08130CC
:1002E00001F5ADDE80916200E82FF0E0E05AFF4FAB
:1002F000D5851092600010926100882311F0C485AA
:1003000001C0C0E0E0916200F0E0E05AFF4FCA3067
:1003100030F4C58796DE8C2F0EDFCF5FF3CFD58705
:1003200090DEE0916000F0E0E05AFF4FC08510E001
:10033000D0E0809165008530C9F404E120E044E11B
:100340006C2F83E0D6DE88E271DE20E04CE36C2F78
:1003500083E0CFDE88E26ADE20E044E16C2F83E0B8
:10036000C8DE0CE36CDE0150E9F709C08C2FB0DE6B
:10037000C83020F01F5F143B10F0C15010E0349BD8
:1003800020C085B18438D8F4C63008F0C5E0813883
:10039000B0F4DF5FD530A0F0C33010F0C1500FC013
:1003A000883768F480E094DE85B7877E806185BFFA
:1003B00085B7806285BF889585B78F7D85BFD0E082
:1003C000369A3DDEB6CFE199FECF8EBBE09A9927F3
:1003D0008DB30895262FE199FECF1CBA8EBB2DBB9D
:1003E0000FB6F894E29AE19A0FBE01960895F89438
:0203F000FFCF3D
:00000001FF
